{
  "_format": "hh-sol-artifact-1",
  "contractName": "Reunione",
  "sourceName": "contracts/Reunione.sol",
  "abi": [
    {
      "inputs": [],
      "name": "AlreadyAMember",
      "type": "error"
    },
    {
      "inputs": [],
      "name": "ClubEnded",
      "type": "error"
    },
    {
      "inputs": [
        {
          "internalType": "uint256",
          "name": "endTime",
          "type": "uint256"
        },
        {
          "internalType": "uint256",
          "name": "currentTime",
          "type": "uint256"
        }
      ],
      "name": "ClubNotEnded",
      "type": "error"
    },
    {
      "inputs": [],
      "name": "DurationExceeded",
      "type": "error"
    },
    {
      "inputs": [],
      "name": "InsufficientPostFee",
      "type": "error"
    },
    {
      "inputs": [],
      "name": "InvalidSubscriptionPrice",
      "type": "error"
    },
    {
      "inputs": [],
      "name": "NotAMember",
      "type": "error"
    },
    {
      "inputs": [],
      "name": "PostNotFound",
      "type": "error"
    },
    {
      "inputs": [],
      "name": "PostTooLong",
      "type": "error"
    },
    {
      "anonymous": false,
      "inputs": [
        {
          "indexed": true,
          "internalType": "uint256",
          "name": "id",
          "type": "uint256"
        },
        {
          "indexed": false,
          "internalType": "address",
          "name": "owner",
          "type": "address"
        },
        {
          "indexed": false,
          "internalType": "string",
          "name": "title",
          "type": "string"
        },
        {
          "indexed": false,
          "internalType": "string",
          "name": "description",
          "type": "string"
        },
        {
          "indexed": false,
          "internalType": "uint256",
          "name": "end",
          "type": "uint256"
        },
        {
          "indexed": false,
          "internalType": "uint256",
          "name": "subscriptionPrice",
          "type": "uint256"
        },
        {
          "indexed": false,
          "internalType": "string",
          "name": "image",
          "type": "string"
        },
        {
          "indexed": false,
          "internalType": "uint256",
          "name": "publicPostFee",
          "type": "uint256"
        }
      ],
      "name": "ClubCreated",
      "type": "event"
    },
    {
      "anonymous": false,
      "inputs": [
        {
          "indexed": true,
          "internalType": "uint256",
          "name": "id",
          "type": "uint256"
        },
        {
          "indexed": false,
          "internalType": "address",
          "name": "member",
          "type": "address"
        },
        {
          "indexed": false,
          "internalType": "uint256",
          "name": "joinFee",
          "type": "uint256"
        }
      ],
      "name": "JoinedClub",
      "type": "event"
    },
    {
      "anonymous": false,
      "inputs": [
        {
          "indexed": true,
          "internalType": "uint256",
          "name": "clubId",
          "type": "uint256"
        },
        {
          "indexed": false,
          "internalType": "address",
          "name": "author",
          "type": "address"
        },
        {
          "indexed": false,
          "internalType": "uint256",
          "name": "postId",
          "type": "uint256"
        },
        {
          "indexed": false,
          "internalType": "string",
          "name": "content",
          "type": "string"
        },
        {
          "indexed": false,
          "internalType": "uint256",
          "name": "fee",
          "type": "uint256"
        },
        {
          "indexed": false,
          "internalType": "bool",
          "name": "isMemberPost",
          "type": "bool"
        }
      ],
      "name": "PostAdded",
      "type": "event"
    },
    {
      "anonymous": false,
      "inputs": [
        {
          "indexed": true,
          "internalType": "uint256",
          "name": "id",
          "type": "uint256"
        },
        {
          "indexed": false,
          "internalType": "address",
          "name": "member",
          "type": "address"
        },
        {
          "indexed": false,
          "internalType": "uint256",
          "name": "amount",
          "type": "uint256"
        }
      ],
      "name": "WithdrawnFunds",
      "type": "event"
    },
    {
      "inputs": [],
      "name": "DYNAMIC_FEE_PERCENTAGE",
      "outputs": [
        {
          "internalType": "uint256",
          "name": "",
          "type": "uint256"
        }
      ],
      "stateMutability": "view",
      "type": "function"
    },
    {
      "inputs": [],
      "name": "MAX_DURATION",
      "outputs": [
        {
          "internalType": "uint256",
          "name": "",
          "type": "uint256"
        }
      ],
      "stateMutability": "view",
      "type": "function"
    },
    {
      "inputs": [],
      "name": "MAX_POST_LENGTH",
      "outputs": [
        {
          "internalType": "uint256",
          "name": "",
          "type": "uint256"
        }
      ],
      "stateMutability": "view",
      "type": "function"
    },
    {
      "inputs": [
        {
          "internalType": "uint256",
          "name": "_clubId",
          "type": "uint256"
        },
        {
          "internalType": "string",
          "name": "_content",
          "type": "string"
        }
      ],
      "name": "addMemberPost",
      "outputs": [],
      "stateMutability": "nonpayable",
      "type": "function"
    },
    {
      "inputs": [
        {
          "internalType": "uint256",
          "name": "_clubId",
          "type": "uint256"
        },
        {
          "internalType": "string",
          "name": "_content",
          "type": "string"
        }
      ],
      "name": "addPublicPost",
      "outputs": [],
      "stateMutability": "payable",
      "type": "function"
    },
    {
      "inputs": [
        {
          "internalType": "uint256",
          "name": "_clubId",
          "type": "uint256"
        }
      ],
      "name": "calculateJoinFee",
      "outputs": [
        {
          "internalType": "uint256",
          "name": "",
          "type": "uint256"
        }
      ],
      "stateMutability": "view",
      "type": "function"
    },
    {
      "inputs": [
        {
          "internalType": "uint256",
          "name": "",
          "type": "uint256"
        }
      ],
      "name": "clubs",
      "outputs": [
        {
          "internalType": "address",
          "name": "owner",
          "type": "address"
        },
        {
          "internalType": "string",
          "name": "title",
          "type": "string"
        },
        {
          "internalType": "string",
          "name": "description",
          "type": "string"
        },
        {
          "internalType": "uint256",
          "name": "end",
          "type": "uint256"
        },
        {
          "internalType": "uint256",
          "name": "amountCollected",
          "type": "uint256"
        },
        {
          "internalType": "string",
          "name": "image",
          "type": "string"
        },
        {
          "internalType": "uint256",
          "name": "subscriptionPrice",
          "type": "uint256"
        },
        {
          "internalType": "uint256",
          "name": "publicPostFee",
          "type": "uint256"
        },
        {
          "internalType": "uint256",
          "name": "postCount",
          "type": "uint256"
        }
      ],
      "stateMutability": "view",
      "type": "function"
    },
    {
      "inputs": [
        {
          "internalType": "string",
          "name": "_title",
          "type": "string"
        },
        {
          "internalType": "string",
          "name": "_description",
          "type": "string"
        },
        {
          "internalType": "uint256",
          "name": "_duration",
          "type": "uint256"
        },
        {
          "internalType": "uint256",
          "name": "_subscriptionPrice",
          "type": "uint256"
        },
        {
          "internalType": "string",
          "name": "_image",
          "type": "string"
        },
        {
          "internalType": "uint256",
          "name": "_publicPostFee",
          "type": "uint256"
        }
      ],
      "name": "createClub",
      "outputs": [
        {
          "internalType": "uint256",
          "name": "",
          "type": "uint256"
        }
      ],
      "stateMutability": "nonpayable",
      "type": "function"
    },
    {
      "inputs": [
        {
          "internalType": "uint256",
          "name": "_id",
          "type": "uint256"
        }
      ],
      "name": "getClub",
      "outputs": [
        {
          "components": [
            {
              "internalType": "address",
              "name": "owner",
              "type": "address"
            },
            {
              "internalType": "string",
              "name": "title",
              "type": "string"
            },
            {
              "internalType": "string",
              "name": "description",
              "type": "string"
            },
            {
              "internalType": "uint256",
              "name": "end",
              "type": "uint256"
            },
            {
              "internalType": "uint256",
              "name": "amountCollected",
              "type": "uint256"
            },
            {
              "internalType": "string",
              "name": "image",
              "type": "string"
            },
            {
              "internalType": "address payable[]",
              "name": "members",
              "type": "address[]"
            },
            {
              "internalType": "uint256",
              "name": "subscriptionPrice",
              "type": "uint256"
            },
            {
              "internalType": "uint256",
              "name": "publicPostFee",
              "type": "uint256"
            },
            {
              "components": [
                {
                  "internalType": "address",
                  "name": "author",
                  "type": "address"
                },
                {
                  "internalType": "string",
                  "name": "content",
                  "type": "string"
                },
                {
                  "internalType": "uint256",
                  "name": "timestamp",
                  "type": "uint256"
                },
                {
                  "internalType": "uint256",
                  "name": "fee",
                  "type": "uint256"
                },
                {
                  "internalType": "bool",
                  "name": "isMemberPost",
                  "type": "bool"
                }
              ],
              "internalType": "struct Reunione.Post[]",
              "name": "posts",
              "type": "tuple[]"
            },
            {
              "internalType": "uint256",
              "name": "postCount",
              "type": "uint256"
            }
          ],
          "internalType": "struct Reunione.Club",
          "name": "",
          "type": "tuple"
        }
      ],
      "stateMutability": "view",
      "type": "function"
    },
    {
      "inputs": [],
      "name": "getClubs",
      "outputs": [
        {
          "components": [
            {
              "internalType": "address",
              "name": "owner",
              "type": "address"
            },
            {
              "internalType": "string",
              "name": "title",
              "type": "string"
            },
            {
              "internalType": "string",
              "name": "description",
              "type": "string"
            },
            {
              "internalType": "uint256",
              "name": "end",
              "type": "uint256"
            },
            {
              "internalType": "uint256",
              "name": "amountCollected",
              "type": "uint256"
            },
            {
              "internalType": "string",
              "name": "image",
              "type": "string"
            },
            {
              "internalType": "address payable[]",
              "name": "members",
              "type": "address[]"
            },
            {
              "internalType": "uint256",
              "name": "subscriptionPrice",
              "type": "uint256"
            },
            {
              "internalType": "uint256",
              "name": "publicPostFee",
              "type": "uint256"
            },
            {
              "components": [
                {
                  "internalType": "address",
                  "name": "author",
                  "type": "address"
                },
                {
                  "internalType": "string",
                  "name": "content",
                  "type": "string"
                },
                {
                  "internalType": "uint256",
                  "name": "timestamp",
                  "type": "uint256"
                },
                {
                  "internalType": "uint256",
                  "name": "fee",
                  "type": "uint256"
                },
                {
                  "internalType": "bool",
                  "name": "isMemberPost",
                  "type": "bool"
                }
              ],
              "internalType": "struct Reunione.Post[]",
              "name": "posts",
              "type": "tuple[]"
            },
            {
              "internalType": "uint256",
              "name": "postCount",
              "type": "uint256"
            }
          ],
          "internalType": "struct Reunione.Club[]",
          "name": "",
          "type": "tuple[]"
        }
      ],
      "stateMutability": "view",
      "type": "function"
    },
    {
      "inputs": [
        {
          "internalType": "uint256",
          "name": "_id",
          "type": "uint256"
        }
      ],
      "name": "getMembers",
      "outputs": [
        {
          "internalType": "address payable[]",
          "name": "",
          "type": "address[]"
        }
      ],
      "stateMutability": "view",
      "type": "function"
    },
    {
      "inputs": [
        {
          "internalType": "uint256",
          "name": "_clubId",
          "type": "uint256"
        },
        {
          "internalType": "uint256",
          "name": "_postId",
          "type": "uint256"
        }
      ],
      "name": "getPost",
      "outputs": [
        {
          "components": [
            {
              "internalType": "address",
              "name": "author",
              "type": "address"
            },
            {
              "internalType": "string",
              "name": "content",
              "type": "string"
            },
            {
              "internalType": "uint256",
              "name": "timestamp",
              "type": "uint256"
            },
            {
              "internalType": "uint256",
              "name": "fee",
              "type": "uint256"
            },
            {
              "internalType": "bool",
              "name": "isMemberPost",
              "type": "bool"
            }
          ],
          "internalType": "struct Reunione.Post",
          "name": "",
          "type": "tuple"
        }
      ],
      "stateMutability": "view",
      "type": "function"
    },
    {
      "inputs": [
        {
          "internalType": "uint256",
          "name": "_clubId",
          "type": "uint256"
        }
      ],
      "name": "getPostCount",
      "outputs": [
        {
          "internalType": "uint256",
          "name": "",
          "type": "uint256"
        }
      ],
      "stateMutability": "view",
      "type": "function"
    },
    {
      "inputs": [
        {
          "internalType": "uint256",
          "name": "_clubId",
          "type": "uint256"
        },
        {
          "internalType": "uint256",
          "name": "_startIndex",
          "type": "uint256"
        },
        {
          "internalType": "uint256",
          "name": "_endIndex",
          "type": "uint256"
        }
      ],
      "name": "getPosts",
      "outputs": [
        {
          "components": [
            {
              "internalType": "address",
              "name": "author",
              "type": "address"
            },
            {
              "internalType": "string",
              "name": "content",
              "type": "string"
            },
            {
              "internalType": "uint256",
              "name": "timestamp",
              "type": "uint256"
            },
            {
              "internalType": "uint256",
              "name": "fee",
              "type": "uint256"
            },
            {
              "internalType": "bool",
              "name": "isMemberPost",
              "type": "bool"
            }
          ],
          "internalType": "struct Reunione.Post[]",
          "name": "",
          "type": "tuple[]"
        }
      ],
      "stateMutability": "view",
      "type": "function"
    },
    {
      "inputs": [
        {
          "internalType": "uint256",
          "name": "",
          "type": "uint256"
        },
        {
          "internalType": "address",
          "name": "",
          "type": "address"
        }
      ],
      "name": "isMember",
      "outputs": [
        {
          "internalType": "bool",
          "name": "",
          "type": "bool"
        }
      ],
      "stateMutability": "view",
      "type": "function"
    },
    {
      "inputs": [
        {
          "internalType": "uint256",
          "name": "_id",
          "type": "uint256"
        }
      ],
      "name": "joinClub",
      "outputs": [],
      "stateMutability": "payable",
      "type": "function"
    },
    {
      "inputs": [],
      "name": "numberOfClubs",
      "outputs": [
        {
          "internalType": "uint256",
          "name": "",
          "type": "uint256"
        }
      ],
      "stateMutability": "view",
      "type": "function"
    },
    {
      "inputs": [
        {
          "internalType": "uint256",
          "name": "_id",
          "type": "uint256"
        }
      ],
      "name": "withdraw",
      "outputs": [],
      "stateMutability": "nonpayable",
      "type": "function"
    }
  ],
  "bytecode": "0x6080604052600060025534801561001557600080fd5b506137ca806100256000396000f3fe6080604052600436106101095760003560e01c8063b1724b4611610095578063d258db8811610064578063d258db881461038c578063dc6d206b146103c9578063dfe293aa14610406578063e154274214610443578063e31098511461045f57610109565b8063b1724b46146102bc578063c328f064146102e7578063c477ecab14610312578063c4c9a9c01461034f57610109565b80635adf16af116100dc5780635adf16af146101b65780637586a2bd146101f35780637d9e10f51461021e5780639cc009c11461025b5780639f5369e7146102a057610109565b80632e1a7d4d1461010e5780632fa02c4a146101375780635192e44a146101625780635432a7731461018b575b600080fd5b34801561011a57600080fd5b50610135600480360381019061013091906122da565b61049c565b005b34801561014357600080fd5b5061014c610705565b6040516101599190612316565b60405180910390f35b34801561016e57600080fd5b5061018960048036038101906101849190612477565b61070a565b005b34801561019757600080fd5b506101a0610969565b6040516101ad9190612316565b60405180910390f35b3480156101c257600080fd5b506101dd60048036038101906101d891906122da565b61096f565b6040516101ea91906128d0565b60405180910390f35b3480156101ff57600080fd5b50610208610e22565b6040516102159190612abf565b60405180910390f35b34801561022a57600080fd5b5061024560048036038101906102409190612b0d565b61131e565b6040516102529190612b5c565b60405180910390f35b34801561026757600080fd5b50610282600480360381019061027d91906122da565b61134d565b60405161029799989796959493929190612bd0565b60405180910390f35b6102ba60048036038101906102b59190612477565b611553565b005b3480156102c857600080fd5b506102d1611775565b6040516102de9190612316565b60405180910390f35b3480156102f357600080fd5b506102fc61177b565b6040516103099190612316565b60405180910390f35b34801561031e57600080fd5b50610339600480360381019061033491906122da565b611781565b6040516103469190612ce1565b60405180910390f35b34801561035b57600080fd5b5061037660048036038101906103719190612d03565b611824565b6040516103839190612db9565b60405180910390f35b34801561039857600080fd5b506103b360048036038101906103ae9190612ddb565b611a12565b6040516103c09190612eb4565b60405180910390f35b3480156103d557600080fd5b506103f060048036038101906103eb91906122da565b611ccd565b6040516103fd9190612316565b60405180910390f35b34801561041257600080fd5b5061042d60048036038101906104289190612ed6565b611d46565b60405161043a9190612316565b60405180910390f35b61045d600480360381019061045891906122da565b611f21565b005b34801561046b57600080fd5b50610486600480360381019061048191906122da565b612176565b6040516104939190612316565b60405180910390f35b600080600083815260200190815260200160002090508060030154421015610501578060030154426040517f3f3447a00000000000000000000000000000000000000000000000000000000081526004016104f8929190612fb7565b60405180910390fd5b6001600083815260200190815260200160002060003373ffffffffffffffffffffffffffffffffffffffff1673ffffffffffffffffffffffffffffffffffffffff16815260200190815260200160002060009054906101000a900460ff16610595576040517f2818e88800000000000000000000000000000000000000000000000000000000815260040160405180910390fd5b6000816006018054905082600401546105ae919061303e565b905060003373ffffffffffffffffffffffffffffffffffffffff16826040516105d6906130a0565b60006040518083038185875af1925050503d8060008114610613576040519150601f19603f3d011682016040523d82523d6000602084013e610618565b606091505b505090508061065c576040517f08c379a000000000000000000000000000000000000000000000000000000000815260040161065390613101565b60405180910390fd5b60006001600086815260200190815260200160002060003373ffffffffffffffffffffffffffffffffffffffff1673ffffffffffffffffffffffffffffffffffffffff16815260200190815260200160002060006101000a81548160ff021916908315150217905550837f39c52b101497152f9f6e1ba531ce3e7431ed39588a9a331664a6803f10d5586e33846040516106f7929190613121565b60405180910390a250505050565b600a81565b600080600084815260200190815260200160002090506001600084815260200190815260200160002060003373ffffffffffffffffffffffffffffffffffffffff1673ffffffffffffffffffffffffffffffffffffffff16815260200190815260200160002060009054906101000a900460ff166107b4576040517f2818e88800000000000000000000000000000000000000000000000000000000815260040160405180910390fd5b610118825111156107f1576040517f6f6800d600000000000000000000000000000000000000000000000000000000815260040160405180910390fd5b60006040518060a001604052803373ffffffffffffffffffffffffffffffffffffffff168152602001848152602001428152602001600081526020016001151581525090508160090181908060018154018082558091505060019003906000526020600020906005020160009091909190915060008201518160000160006101000a81548173ffffffffffffffffffffffffffffffffffffffff021916908373ffffffffffffffffffffffffffffffffffffffff16021790555060208201518160010190816108c09190613356565b50604082015181600201556060820151816003015560808201518160040160006101000a81548160ff021916908315150217905550505081600a01600081548092919061090c90613428565b9190505550837f3675dfff69f16cc3c9a62f1dade32d559951dccafc5f489ba27d839e5f1e4e0b33600185600a01546109459190613470565b866000600160405161095b9594939291906134df565b60405180910390a250505050565b61011881565b6109776121d9565b60025482106109bb576040517f08c379a00000000000000000000000000000000000000000000000000000000081526004016109b290613585565b60405180910390fd5b600080838152602001908152602001600020604051806101600160405290816000820160009054906101000a900473ffffffffffffffffffffffffffffffffffffffff1673ffffffffffffffffffffffffffffffffffffffff1673ffffffffffffffffffffffffffffffffffffffff168152602001600182018054610a3f90613179565b80601f0160208091040260200160405190810160405280929190818152602001828054610a6b90613179565b8015610ab85780601f10610a8d57610100808354040283529160200191610ab8565b820191906000526020600020905b815481529060010190602001808311610a9b57829003601f168201915b50505050508152602001600282018054610ad190613179565b80601f0160208091040260200160405190810160405280929190818152602001828054610afd90613179565b8015610b4a5780601f10610b1f57610100808354040283529160200191610b4a565b820191906000526020600020905b815481529060010190602001808311610b2d57829003601f168201915b505050505081526020016003820154815260200160048201548152602001600582018054610b7790613179565b80601f0160208091040260200160405190810160405280929190818152602001828054610ba390613179565b8015610bf05780601f10610bc557610100808354040283529160200191610bf0565b820191906000526020600020905b815481529060010190602001808311610bd357829003601f168201915b5050505050815260200160068201805480602002602001604051908101604052809291908181526020018280548015610c7e57602002820191906000526020600020905b8160009054906101000a900473ffffffffffffffffffffffffffffffffffffffff1673ffffffffffffffffffffffffffffffffffffffff1681526020019060010190808311610c34575b50505050508152602001600782015481526020016008820154815260200160098201805480602002602001604051908101604052809291908181526020016000905b82821015610e0957838290600052602060002090600502016040518060a00160405290816000820160009054906101000a900473ffffffffffffffffffffffffffffffffffffffff1673ffffffffffffffffffffffffffffffffffffffff1673ffffffffffffffffffffffffffffffffffffffff168152602001600182018054610d4990613179565b80601f0160208091040260200160405190810160405280929190818152602001828054610d7590613179565b8015610dc25780601f10610d9757610100808354040283529160200191610dc2565b820191906000526020600020905b815481529060010190602001808311610da557829003601f168201915b5050505050815260200160028201548152602001600382015481526020016004820160009054906101000a900460ff16151515158152505081526020019060010190610cc0565b505050508152602001600a820154815250509050919050565b6060600060025467ffffffffffffffff811115610e4257610e4161234c565b5b604051908082528060200260200182016040528015610e7b57816020015b610e686121d9565b815260200190600190039081610e605790505b50905060005b60025481101561131657600080828152602001908152602001600020604051806101600160405290816000820160009054906101000a900473ffffffffffffffffffffffffffffffffffffffff1673ffffffffffffffffffffffffffffffffffffffff1673ffffffffffffffffffffffffffffffffffffffff168152602001600182018054610f0f90613179565b80601f0160208091040260200160405190810160405280929190818152602001828054610f3b90613179565b8015610f885780601f10610f5d57610100808354040283529160200191610f88565b820191906000526020600020905b815481529060010190602001808311610f6b57829003601f168201915b50505050508152602001600282018054610fa190613179565b80601f0160208091040260200160405190810160405280929190818152602001828054610fcd90613179565b801561101a5780601f10610fef5761010080835404028352916020019161101a565b820191906000526020600020905b815481529060010190602001808311610ffd57829003601f168201915b50505050508152602001600382015481526020016004820154815260200160058201805461104790613179565b80601f016020809104026020016040519081016040528092919081815260200182805461107390613179565b80156110c05780601f10611095576101008083540402835291602001916110c0565b820191906000526020600020905b8154815290600101906020018083116110a357829003601f168201915b505050505081526020016006820180548060200260200160405190810160405280929190818152602001828054801561114e57602002820191906000526020600020905b8160009054906101000a900473ffffffffffffffffffffffffffffffffffffffff1673ffffffffffffffffffffffffffffffffffffffff1681526020019060010190808311611104575b50505050508152602001600782015481526020016008820154815260200160098201805480602002602001604051908101604052809291908181526020016000905b828210156112d957838290600052602060002090600502016040518060a00160405290816000820160009054906101000a900473ffffffffffffffffffffffffffffffffffffffff1673ffffffffffffffffffffffffffffffffffffffff1673ffffffffffffffffffffffffffffffffffffffff16815260200160018201805461121990613179565b80601f016020809104026020016040519081016040528092919081815260200182805461124590613179565b80156112925780601f1061126757610100808354040283529160200191611292565b820191906000526020600020905b81548152906001019060200180831161127557829003601f168201915b5050505050815260200160028201548152602001600382015481526020016004820160009054906101000a900460ff16151515158152505081526020019060010190611190565b505050508152602001600a820154815250508282815181106112fe576112fd6135a5565b5b60200260200101819052508080600101915050610e81565b508091505090565b60016020528160005260406000206020528060005260406000206000915091509054906101000a900460ff1681565b60006020528060005260406000206000915090508060000160009054906101000a900473ffffffffffffffffffffffffffffffffffffffff169080600101805461139690613179565b80601f01602080910402602001604051908101604052809291908181526020018280546113c290613179565b801561140f5780601f106113e45761010080835404028352916020019161140f565b820191906000526020600020905b8154815290600101906020018083116113f257829003601f168201915b50505050509080600201805461142490613179565b80601f016020809104026020016040519081016040528092919081815260200182805461145090613179565b801561149d5780601f106114725761010080835404028352916020019161149d565b820191906000526020600020905b81548152906001019060200180831161148057829003601f168201915b5050505050908060030154908060040154908060050180546114be90613179565b80601f01602080910402602001604051908101604052809291908181526020018280546114ea90613179565b80156115375780601f1061150c57610100808354040283529160200191611537565b820191906000526020600020905b81548152906001019060200180831161151a57829003601f168201915b50505050509080600701549080600801549080600a0154905089565b60008060008481526020019081526020016000209050610118825111156115a6576040517f6f6800d600000000000000000000000000000000000000000000000000000000815260040160405180910390fd5b80600801543410156115e4576040517f1183556400000000000000000000000000000000000000000000000000000000815260040160405180910390fd5b60006040518060a001604052803373ffffffffffffffffffffffffffffffffffffffff1681526020018481526020014281526020013481526020016000151581525090508160090181908060018154018082558091505060019003906000526020600020906005020160009091909190915060008201518160000160006101000a81548173ffffffffffffffffffffffffffffffffffffffff021916908373ffffffffffffffffffffffffffffffffffffffff16021790555060208201518160010190816116b29190613356565b50604082015181600201556060820151816003015560808201518160040160006101000a81548160ff021916908315150217905550505081600a0160008154809291906116fe90613428565b91905055503482600401600082825461171791906135d4565b92505081905550837f3675dfff69f16cc3c9a62f1dade32d559951dccafc5f489ba27d839e5f1e4e0b33600185600a01546117529190613470565b86346000604051611767959493929190613608565b60405180910390a250505050565b6102da81565b60025481565b606060008083815260200190815260200160002060060180548060200260200160405190810160405280929190818152602001828054801561181857602002820191906000526020600020905b8160009054906101000a900473ffffffffffffffffffffffffffffffffffffffff1673ffffffffffffffffffffffffffffffffffffffff16815260200190600101908083116117ce575b50505050509050919050565b61182c612249565b6002548310611870576040517f08c379a000000000000000000000000000000000000000000000000000000000815260040161186790613585565b60405180910390fd5b6000806000858152602001908152602001600020905080600a015483106118c3576040517fbc1f089f00000000000000000000000000000000000000000000000000000000815260040160405180910390fd5b8060090183815481106118d9576118d86135a5565b5b90600052602060002090600502016040518060a00160405290816000820160009054906101000a900473ffffffffffffffffffffffffffffffffffffffff1673ffffffffffffffffffffffffffffffffffffffff1673ffffffffffffffffffffffffffffffffffffffff16815260200160018201805461195890613179565b80601f016020809104026020016040519081016040528092919081815260200182805461198490613179565b80156119d15780601f106119a6576101008083540402835291602001916119d1565b820191906000526020600020905b8154815290600101906020018083116119b457829003601f168201915b5050505050815260200160028201548152602001600382015481526020016004820160009054906101000a900460ff16151515158152505091505092915050565b60606002548410611a58576040517f08c379a0000000000000000000000000000000000000000000000000000000008152600401611a4f90613585565b60405180910390fd5b6000806000868152602001908152602001600020905080600a015484108015611a85575080600a01548311155b8015611a915750828411155b611ad0576040517f08c379a0000000000000000000000000000000000000000000000000000000008152600401611ac7906136ae565b60405180910390fd5b60008484611ade9190613470565b905060008167ffffffffffffffff811115611afc57611afb61234c565b5b604051908082528060200260200182016040528015611b3557816020015b611b22612249565b815260200190600190039081611b1a5790505b50905060005b82811015611cbf57836009018188611b5391906135d4565b81548110611b6457611b636135a5565b5b90600052602060002090600502016040518060a00160405290816000820160009054906101000a900473ffffffffffffffffffffffffffffffffffffffff1673ffffffffffffffffffffffffffffffffffffffff1673ffffffffffffffffffffffffffffffffffffffff168152602001600182018054611be390613179565b80601f0160208091040260200160405190810160405280929190818152602001828054611c0f90613179565b8015611c5c5780601f10611c3157610100808354040283529160200191611c5c565b820191906000526020600020905b815481529060010190602001808311611c3f57829003601f168201915b5050505050815260200160028201548152602001600382015481526020016004820160009054906101000a900460ff161515151581525050828281518110611ca757611ca66135a5565b5b60200260200101819052508080600101915050611b3b565b508093505050509392505050565b600080600080848152602001908152602001600020905060008160070154905060008083600601805490501115611d305782600601805490506064611d1291906136ce565b600a8460040154611d2391906136ce565b611d2d919061303e565b90505b8082611d3c91906135d4565b9350505050919050565b60006102da851115611d84576040517f6a19aed300000000000000000000000000000000000000000000000000000000815260040160405180910390fd5b60008403611dbe576040517f8f09f75600000000000000000000000000000000000000000000000000000000815260040160405180910390fd5b600080600060025481526020019081526020016000209050338160000160006101000a81548173ffffffffffffffffffffffffffffffffffffffff021916908373ffffffffffffffffffffffffffffffffffffffff16021790555087816001019081611e2a9190613356565b5086816002019081611e3c9190613356565b506201518086611e4c91906136ce565b42611e5791906135d4565b81600301819055506000816004018190555083816005019081611e7a9190613356565b50848160070181905550828160080181905550600081600a018190555060026000815480929190611eaa90613428565b91905055506001600254611ebe9190613470565b7f11973bf3f86da63e631467353f58aaaea6ae104b18af6127b637facf75e41a21338a8a85600301548a8a8a604051611efd9796959493929190613710565b60405180910390a26001600254611f149190613470565b9150509695505050505050565b6000806000838152602001908152602001600020905080600301544210611f74576040517f27d6799b00000000000000000000000000000000000000000000000000000000815260040160405180910390fd5b6001600083815260200190815260200160002060003373ffffffffffffffffffffffffffffffffffffffff1673ffffffffffffffffffffffffffffffffffffffff16815260200190815260200160002060009054906101000a900460ff1615612009576040517fa929afd100000000000000000000000000000000000000000000000000000000815260040160405180910390fd5b600061201483611ccd565b905080341461204f576040517f8f09f75600000000000000000000000000000000000000000000000000000000815260040160405180910390fd5b81600601339080600181540180825580915050600190039060005260206000200160009091909190916101000a81548173ffffffffffffffffffffffffffffffffffffffff021916908373ffffffffffffffffffffffffffffffffffffffff160217905550600180600085815260200190815260200160002060003373ffffffffffffffffffffffffffffffffffffffff1673ffffffffffffffffffffffffffffffffffffffff16815260200190815260200160002060006101000a81548160ff0219169083151502179055503482600401600082825461213091906135d4565b92505081905550827f6329dbf69a6cff9b9753040f0beae99559ab7e33352206bbd50b10f60a7d099a3383604051612169929190613121565b60405180910390a2505050565b600060025482106121bc576040517f08c379a00000000000000000000000000000000000000000000000000000000081526004016121b390613585565b60405180910390fd5b600080838152602001908152602001600020600a01549050919050565b604051806101600160405280600073ffffffffffffffffffffffffffffffffffffffff168152602001606081526020016060815260200160008152602001600081526020016060815260200160608152602001600081526020016000815260200160608152602001600081525090565b6040518060a00160405280600073ffffffffffffffffffffffffffffffffffffffff1681526020016060815260200160008152602001600081526020016000151581525090565b6000604051905090565b600080fd5b600080fd5b6000819050919050565b6122b7816122a4565b81146122c257600080fd5b50565b6000813590506122d4816122ae565b92915050565b6000602082840312156122f0576122ef61229a565b5b60006122fe848285016122c5565b91505092915050565b612310816122a4565b82525050565b600060208201905061232b6000830184612307565b92915050565b600080fd5b600080fd5b6000601f19601f8301169050919050565b7f4e487b7100000000000000000000000000000000000000000000000000000000600052604160045260246000fd5b6123848261233b565b810181811067ffffffffffffffff821117156123a3576123a261234c565b5b80604052505050565b60006123b6612290565b90506123c2828261237b565b919050565b600067ffffffffffffffff8211156123e2576123e161234c565b5b6123eb8261233b565b9050602081019050919050565b82818337600083830152505050565b600061241a612415846123c7565b6123ac565b90508281526020810184848401111561243657612435612336565b5b6124418482856123f8565b509392505050565b600082601f83011261245e5761245d612331565b5b813561246e848260208601612407565b91505092915050565b6000806040838503121561248e5761248d61229a565b5b600061249c858286016122c5565b925050602083013567ffffffffffffffff8111156124bd576124bc61229f565b5b6124c985828601612449565b9150509250929050565b600073ffffffffffffffffffffffffffffffffffffffff82169050919050565b60006124fe826124d3565b9050919050565b61250e816124f3565b82525050565b600081519050919050565b600082825260208201905092915050565b60005b8381101561254e578082015181840152602081019050612533565b60008484015250505050565b600061256582612514565b61256f818561251f565b935061257f818560208601612530565b6125888161233b565b840191505092915050565b61259c816122a4565b82525050565b600081519050919050565b600082825260208201905092915050565b6000819050602082019050919050565b60006125d9826124d3565b9050919050565b6125e9816125ce565b82525050565b60006125fb83836125e0565b60208301905092915050565b6000602082019050919050565b600061261f826125a2565b61262981856125ad565b9350612634836125be565b8060005b8381101561266557815161264c88826125ef565b975061265783612607565b925050600181019050612638565b5085935050505092915050565b600081519050919050565b600082825260208201905092915050565b6000819050602082019050919050565b60008115159050919050565b6126b38161269e565b82525050565b600060a0830160008301516126d16000860182612505565b50602083015184820360208601526126e9828261255a565b91505060408301516126fe6040860182612593565b5060608301516127116060860182612593565b50608083015161272460808601826126aa565b508091505092915050565b600061273b83836126b9565b905092915050565b6000602082019050919050565b600061275b82612672565b612765818561267d565b9350836020820285016127778561268e565b8060005b858110156127b35784840389528151612794858261272f565b945061279f83612743565b925060208a0199505060018101905061277b565b50829750879550505050505092915050565b6000610160830160008301516127de6000860182612505565b50602083015184820360208601526127f6828261255a565b91505060408301518482036040860152612810828261255a565b91505060608301516128256060860182612593565b5060808301516128386080860182612593565b5060a083015184820360a0860152612850828261255a565b91505060c083015184820360c086015261286a8282612614565b91505060e083015161287f60e0860182612593565b50610100830151612894610100860182612593565b506101208301518482036101208601526128ae8282612750565b9150506101408301516128c5610140860182612593565b508091505092915050565b600060208201905081810360008301526128ea81846127c5565b905092915050565b600081519050919050565b600082825260208201905092915050565b6000819050602082019050919050565b6000610160830160008301516129376000860182612505565b506020830151848203602086015261294f828261255a565b91505060408301518482036040860152612969828261255a565b915050606083015161297e6060860182612593565b5060808301516129916080860182612593565b5060a083015184820360a08601526129a9828261255a565b91505060c083015184820360c08601526129c38282612614565b91505060e08301516129d860e0860182612593565b506101008301516129ed610100860182612593565b50610120830151848203610120860152612a078282612750565b915050610140830151612a1e610140860182612593565b508091505092915050565b6000612a35838361291e565b905092915050565b6000602082019050919050565b6000612a55826128f2565b612a5f81856128fd565b935083602082028501612a718561290e565b8060005b85811015612aad5784840389528151612a8e8582612a29565b9450612a9983612a3d565b925060208a01995050600181019050612a75565b50829750879550505050505092915050565b60006020820190508181036000830152612ad98184612a4a565b905092915050565b612aea816124f3565b8114612af557600080fd5b50565b600081359050612b0781612ae1565b92915050565b60008060408385031215612b2457612b2361229a565b5b6000612b32858286016122c5565b9250506020612b4385828601612af8565b9150509250929050565b612b568161269e565b82525050565b6000602082019050612b716000830184612b4d565b92915050565b612b80816124f3565b82525050565b600082825260208201905092915050565b6000612ba282612514565b612bac8185612b86565b9350612bbc818560208601612530565b612bc58161233b565b840191505092915050565b600061012082019050612be6600083018c612b77565b8181036020830152612bf8818b612b97565b90508181036040830152612c0c818a612b97565b9050612c1b6060830189612307565b612c286080830188612307565b81810360a0830152612c3a8187612b97565b9050612c4960c0830186612307565b612c5660e0830185612307565b612c64610100830184612307565b9a9950505050505050505050565b600082825260208201905092915050565b6000612c8e826125a2565b612c988185612c72565b9350612ca3836125be565b8060005b83811015612cd4578151612cbb88826125ef565b9750612cc683612607565b925050600181019050612ca7565b5085935050505092915050565b60006020820190508181036000830152612cfb8184612c83565b905092915050565b60008060408385031215612d1a57612d1961229a565b5b6000612d28858286016122c5565b9250506020612d39858286016122c5565b9150509250929050565b600060a083016000830151612d5b6000860182612505565b5060208301518482036020860152612d73828261255a565b9150506040830151612d886040860182612593565b506060830151612d9b6060860182612593565b506080830151612dae60808601826126aa565b508091505092915050565b60006020820190508181036000830152612dd38184612d43565b905092915050565b600080600060608486031215612df457612df361229a565b5b6000612e02868287016122c5565b9350506020612e13868287016122c5565b9250506040612e24868287016122c5565b9150509250925092565b600082825260208201905092915050565b6000612e4a82612672565b612e548185612e2e565b935083602082028501612e668561268e565b8060005b85811015612ea25784840389528151612e83858261272f565b9450612e8e83612743565b925060208a01995050600181019050612e6a565b50829750879550505050505092915050565b60006020820190508181036000830152612ece8184612e3f565b905092915050565b60008060008060008060c08789031215612ef357612ef261229a565b5b600087013567ffffffffffffffff811115612f1157612f1061229f565b5b612f1d89828a01612449565b965050602087013567ffffffffffffffff811115612f3e57612f3d61229f565b5b612f4a89828a01612449565b9550506040612f5b89828a016122c5565b9450506060612f6c89828a016122c5565b935050608087013567ffffffffffffffff811115612f8d57612f8c61229f565b5b612f9989828a01612449565b92505060a0612faa89828a016122c5565b9150509295509295509295565b6000604082019050612fcc6000830185612307565b612fd96020830184612307565b9392505050565b7f4e487b7100000000000000000000000000000000000000000000000000000000600052601260045260246000fd5b7f4e487b7100000000000000000000000000000000000000000000000000000000600052601160045260246000fd5b6000613049826122a4565b9150613054836122a4565b92508261306457613063612fe0565b5b828204905092915050565b600081905092915050565b50565b600061308a60008361306f565b91506130958261307a565b600082019050919050565b60006130ab8261307d565b9150819050919050565b7f5472616e73666572206661696c65640000000000000000000000000000000000600082015250565b60006130eb600f83612b86565b91506130f6826130b5565b602082019050919050565b6000602082019050818103600083015261311a816130de565b9050919050565b60006040820190506131366000830185612b77565b6131436020830184612307565b9392505050565b7f4e487b7100000000000000000000000000000000000000000000000000000000600052602260045260246000fd5b6000600282049050600182168061319157607f821691505b6020821081036131a4576131a361314a565b5b50919050565b60008190508160005260206000209050919050565b60006020601f8301049050919050565b600082821b905092915050565b60006008830261320c7fffffffffffffffffffffffffffffffffffffffffffffffffffffffffffffffff826131cf565b61321686836131cf565b95508019841693508086168417925050509392505050565b6000819050919050565b600061325361324e613249846122a4565b61322e565b6122a4565b9050919050565b6000819050919050565b61326d83613238565b6132816132798261325a565b8484546131dc565b825550505050565b600090565b613296613289565b6132a1818484613264565b505050565b5b818110156132c5576132ba60008261328e565b6001810190506132a7565b5050565b601f82111561330a576132db816131aa565b6132e4846131bf565b810160208510156132f3578190505b6133076132ff856131bf565b8301826132a6565b50505b505050565b600082821c905092915050565b600061332d6000198460080261330f565b1980831691505092915050565b6000613346838361331c565b9150826002028217905092915050565b61335f82612514565b67ffffffffffffffff8111156133785761337761234c565b5b6133828254613179565b61338d8282856132c9565b600060209050601f8311600181146133c057600084156133ae578287015190505b6133b8858261333a565b865550613420565b601f1984166133ce866131aa565b60005b828110156133f6578489015182556001820191506020850194506020810190506133d1565b86831015613413578489015161340f601f89168261331c565b8355505b6001600288020188555050505b505050505050565b6000613433826122a4565b91507fffffffffffffffffffffffffffffffffffffffffffffffffffffffffffffffff82036134655761346461300f565b5b600182019050919050565b600061347b826122a4565b9150613486836122a4565b925082820390508181111561349e5761349d61300f565b5b92915050565b6000819050919050565b60006134c96134c46134bf846134a4565b61322e565b6122a4565b9050919050565b6134d9816134ae565b82525050565b600060a0820190506134f46000830188612b77565b6135016020830187612307565b81810360408301526135138186612b97565b905061352260608301856134d0565b61352f6080830184612b4d565b9695505050505050565b7f436c756220646f6573206e6f7420657869737400000000000000000000000000600082015250565b600061356f601383612b86565b915061357a82613539565b602082019050919050565b6000602082019050818103600083015261359e81613562565b9050919050565b7f4e487b7100000000000000000000000000000000000000000000000000000000600052603260045260246000fd5b60006135df826122a4565b91506135ea836122a4565b92508282019050808211156136025761360161300f565b5b92915050565b600060a08201905061361d6000830188612b77565b61362a6020830187612307565b818103604083015261363c8186612b97565b905061364b6060830185612307565b6136586080830184612b4d565b9695505050505050565b7f496e76616c696420696e6465782072616e676500000000000000000000000000600082015250565b6000613698601383612b86565b91506136a382613662565b602082019050919050565b600060208201905081810360008301526136c78161368b565b9050919050565b60006136d9826122a4565b91506136e4836122a4565b92508282026136f2816122a4565b915082820484148315176137095761370861300f565b5b5092915050565b600060e082019050613725600083018a612b77565b81810360208301526137378189612b97565b9050818103604083015261374b8188612b97565b905061375a6060830187612307565b6137676080830186612307565b81810360a08301526137798185612b97565b905061378860c0830184612307565b9897505050505050505056fea26469706673582212209209883a045a0c221bb7f6695cf9a2213d7bd1a3413e2b85355d3116b4efa44064736f6c63430008180033",
  "linkReferences": {},
  "deployedLinkReferences": {}
}